{
  "transactions": [
    {
      "hash": "0x8a43844e6e3ef605596ef1247832b665a8b5ecdcc00c3e4419ead8b9e447d78b",
      "transactionType": "CALL",
      "contractName": null,
      "contractAddress": "0x8a32a8683be30b228ee637f9f7ff47f84fba48eb",
      "function": "approve(address,uint256)",
      "arguments": [
        "0x1ad2FC3469dB1625730B4401E5717B741526B6af",
        "115792089237316195423570985008687907853269984665640564039457584007913129639935"
      ],
      "transaction": {
        "from": "0xf4747e7c6b0b127939fe4fa28bb3b89d5bb360b5",
        "to": "0x8a32a8683be30b228ee637f9f7ff47f84fba48eb",
        "gas": "0x10de3",
        "value": "0x0",
        "input": "0x095ea7b30000000000000000000000001ad2fc3469db1625730b4401e5717b741526b6afffffffffffffffffffffffffffffffffffffffffffffffffffffffffffffffff",
        "nonce": "0x2",
        "chainId": "0x14a34"
      },
      "additionalContracts": [],
      "isFixedGasLimit": false
    },
    {
      "hash": "0xf16047e414449ec25e4bf2ce7f04e4344a1339d2b986c295071c5cada7077c5a",
      "transactionType": "CALL",
      "contractName": null,
      "contractAddress": "0x1ad2fc3469db1625730b4401e5717b741526b6af",
      "function": "createPlan(address,uint256,uint256)",
      "arguments": [
        "0x8a32a8683Be30b228ee637f9F7fF47f84FbA48EB",
        "10000000",
        "60"
      ],
      "transaction": {
        "from": "0xf4747e7c6b0b127939fe4fa28bb3b89d5bb360b5",
        "to": "0x1ad2fc3469db1625730b4401e5717b741526b6af",
        "gas": "0x2e32a",
        "value": "0x0",
        "input": "0xe95fc90f0000000000000000000000008a32a8683be30b228ee637f9f7ff47f84fba48eb0000000000000000000000000000000000000000000000000000000000989680000000000000000000000000000000000000000000000000000000000000003c",
        "nonce": "0x3",
        "chainId": "0x14a34"
      },
      "additionalContracts": [],
      "isFixedGasLimit": false
    },
    {
      "hash": "0x3b447343357f63e1ecb184065c183d9d494b6f4acabf17a98371c9fecb9092e3",
      "transactionType": "CALL",
      "contractName": null,
      "contractAddress": "0x1ad2fc3469db1625730b4401e5717b741526b6af",
      "function": "subscribe(uint256)",
      "arguments": [
        "0"
      ],
      "transaction": {
        "from": "0xf4747e7c6b0b127939fe4fa28bb3b89d5bb360b5",
        "to": "0x1ad2fc3469db1625730b4401e5717b741526b6af",
        "gas": "0x32ce6",
        "value": "0x0",
        "input": "0x0f574ba70000000000000000000000000000000000000000000000000000000000000000",
        "nonce": "0x4",
        "chainId": "0x14a34"
      },
      "additionalContracts": [],
      "isFixedGasLimit": false
    }
  ],
  "receipts": [
    {
      "status": "0x1",
      "cumulativeGasUsed": "0x6dab01",
      "logs": [
        {
          "address": "0x8a32a8683be30b228ee637f9f7ff47f84fba48eb",
          "topics": [
            "0x8c5be1e5ebec7d5bd14f71427d1e84f3dd0314c0f7b2291e5b200ac8c7c3b925",
            "0x000000000000000000000000f4747e7c6b0b127939fe4fa28bb3b89d5bb360b5",
            "0x0000000000000000000000001ad2fc3469db1625730b4401e5717b741526b6af"
          ],
          "data": "0xffffffffffffffffffffffffffffffffffffffffffffffffffffffffffffffff",
          "blockHash": "0x70780e18c4ff5206088737833f60e4c780db810f27a63fc8943055f5a7115ab8",
          "blockNumber": "0x2644b3e",
          "blockTimestamp": "0x69dbf55c",
          "transactionHash": "0x3b447343357f63e1ecb184065c183d9d494b6f4acabf17a98371c9fecb9092e3",
          "transactionIndex": "0xc",
          "logIndex": "0x91",
          "removed": false
        }
      ],
      "logsBloom": "0x00000000000000000000000000000000000000020000000800000000000000000000000000000000000000050000000000000000000000000000000000200000000000000000000000000000000000100000000000000000000000000000000000000000000000000000000000000000000000000000000000000000000000000000000000000000000400000000000000000000000000000000000000000010020000000000000000000000000000000000000000000000010000000000000000000000004000000000000000000000000000000000000000000000000000000010000000000000000000000000000000000000000000000000000000000000",
      "type": "0x2",
      "transactionHash": "0x3b447343357f63e1ecb184065c183d9d494b6f4acabf17a98371c9fecb9092e3",
      "transactionIndex": "0xc",
      "blockHash": "0x70780e18c4ff5206088737833f60e4c780db810f27a63fc8943055f5a7115ab8",
      "blockNumber": "0x2644b3e",
      "gasUsed": "0xb88a",
      "effectiveGasPrice": "0x5b8d80",
      "blobGasUsed": "0x39d0",
      "from": "0xf4747e7c6b0b127939fe4fa28bb3b89d5bb360b5",
      "to": "0x8a32a8683be30b228ee637f9f7ff47f84fba48eb",
      "contractAddress": null,
      "daFootprintGasScalar": "0x94",
      "l1BaseFeeScalar": "0x44d",
      "l1BlobBaseFee": "0x7509",
      "l1BlobBaseFeeScalar": "0xa118b",
      "l1Fee": "0x2ac7a4",
      "l1GasPrice": "0x72908",
      "l1GasUsed": "0x640"
    },
    {
      "status": "0x1",
      "cumulativeGasUsed": "0x6fc226",
      "logs": [
        {
          "address": "0x1ad2fc3469db1625730b4401e5717b741526b6af",
          "topics": [
            "0xe67fce1f0b05ec0cc46f99e5a9b0a43bffde3c9c95f1457d630e29c180311a7e",
            "0x0000000000000000000000000000000000000000000000000000000000000000",
            "0x000000000000000000000000f4747e7c6b0b127939fe4fa28bb3b89d5bb360b5"
          ],
          "data": "0x0000000000000000000000008a32a8683be30b228ee637f9f7ff47f84fba48eb0000000000000000000000000000000000000000000000000000000000989680000000000000000000000000000000000000000000000000000000000000003c",
          "blockHash": "0x70780e18c4ff5206088737833f60e4c780db810f27a63fc8943055f5a7115ab8",
          "blockNumber": "0x2644b3e",
          "blockTimestamp": "0x69dbf55c",
          "transactionHash": "0xf16047e414449ec25e4bf2ce7f04e4344a1339d2b986c295071c5cada7077c5a",
          "transactionIndex": "0xd",
          "logIndex": "0x92",
          "removed": false
        }
      ],
      "logsBloom": "0x00000000000000000000000000000000000000000000000000000000000080000000000000000000000000010000000000000000000000000000040000000000000000000000000000000000000000000010000000000000000000000000000000000000020000000000000000000800000000000000000000000000000000200000000000000000000400000000000000000000000000000000000000000000000000000000000000000000000000000000000000000000000000000000000000100080004000000000000000000000000000000000000000000000000020000000000000000000000000000000000000000000000000000000000000000000",
      "type": "0x2",
      "transactionHash": "0xf16047e414449ec25e4bf2ce7f04e4344a1339d2b986c295071c5cada7077c5a",
      "transactionIndex": "0xd",
      "blockHash": "0x70780e18c4ff5206088737833f60e4c780db810f27a63fc8943055f5a7115ab8",
      "blockNumber": "0x2644b3e",
      "gasUsed": "0x21725",
      "effectiveGasPrice": "0x5b8d80",
      "blobGasUsed": "0x39d0",
      "from": "0xf4747e7c6b0b127939fe4fa28bb3b89d5bb360b5",
      "to": "0x1ad2fc3469db1625730b4401e5717b741526b6af",
      "contractAddress": null,
      "daFootprintGasScalar": "0x94",
      "l1BaseFeeScalar": "0x44d",
      "l1BlobBaseFee": "0x7509",
      "l1BlobBaseFeeScalar": "0xa118b",
      "l1Fee": "0x2ac7a4",
      "l1GasPrice": "0x72908",
      "l1GasUsed": "0x640"
    },
    {
      "status": "0x1",
      "cumulativeGasUsed": "0x720ead",
      "logs": [
        {
          "address": "0x8a32a8683be30b228ee637f9f7ff47f84fba48eb",
          "topics": [
            "0xddf252ad1be2c89b69c2b068fc378daa952ba7f163c4a11628f55a4df523b3ef",
            "0x000000000000000000000000f4747e7c6b0b127939fe4fa28bb3b89d5bb360b5",
            "0x000000000000000000000000f4747e7c6b0b127939fe4fa28bb3b89d5bb360b5"
          ],
          "data": "0x0000000000000000000000000000000000000000000000000000000000970fe0",
          "blockHash": "0x70780e18c4ff5206088737833f60e4c780db810f27a63fc8943055f5a7115ab8",
          "blockNumber": "0x2644b3e",
          "blockTimestamp": "0x69dbf55c",
          "transactionHash": "0x8a43844e6e3ef605596ef1247832b665a8b5ecdcc00c3e4419ead8b9e447d78b",
          "transactionIndex": "0xe",
          "logIndex": "0x93",
          "removed": false
        },
        {
          "address": "0x8a32a8683be30b228ee637f9f7ff47f84fba48eb",
          "topics": [
            "0xddf252ad1be2c89b69c2b068fc378daa952ba7f163c4a11628f55a4df523b3ef",
            "0x000000000000000000000000f4747e7c6b0b127939fe4fa28bb3b89d5bb360b5",
            "0x000000000000000000000000f4747e7c6b0b127939fe4fa28bb3b89d5bb360b5"
          ],
          "data": "0x00000000000000000000000000000000000000000000000000000000000186a0",
          "blockHash": "0x70780e18c4ff5206088737833f60e4c780db810f27a63fc8943055f5a7115ab8",
          "blockNumber": "0x2644b3e",
          "blockTimestamp": "0x69dbf55c",
          "transactionHash": "0x8a43844e6e3ef605596ef1247832b665a8b5ecdcc00c3e4419ead8b9e447d78b",
          "transactionIndex": "0xe",
          "logIndex": "0x94",
          "removed": false
        },
        {
          "address": "0x1ad2fc3469db1625730b4401e5717b741526b6af",
          "topics": [
            "0x719d57359948c2c6f2a923516c19aba22b490e924879b674c1d6371bb6541f17",
            "0x0000000000000000000000000000000000000000000000000000000000000000",
            "0x0000000000000000000000000000000000000000000000000000000000000000",
            "0x000000000000000000000000f4747e7c6b0b127939fe4fa28bb3b89d5bb360b5"
          ],
          "data": "0x",
          "blockHash": "0x70780e18c4ff5206088737833f60e4c780db810f27a63fc8943055f5a7115ab8",
          "blockNumber": "0x2644b3e",
          "blockTimestamp": "0x69dbf55c",
          "transactionHash": "0x8a43844e6e3ef605596ef1247832b665a8b5ecdcc00c3e4419ead8b9e447d78b",
          "transactionIndex": "0xe",
          "logIndex": "0x95",
          "removed": false
        },
        {
          "address": "0x1ad2fc3469db1625730b4401e5717b741526b6af",
          "topics": [
            "0xb5287fd929180595909b1e43982aa47d5b64f7920ccf127ea155b7736cc42595",
            "0x0000000000000000000000000000000000000000000000000000000000000000"
          ],
          "data": "0x000000000000000000000000000000000000000000000000000000000098968000000000000000000000000000000000000000000000000000000000000186a0",
          "blockHash": "0x70780e18c4ff5206088737833f60e4c780db810f27a63fc8943055f5a7115ab8",
          "blockNumber": "0x2644b3e",
          "blockTimestamp": "0x69dbf55c",
          "transactionHash": "0x8a43844e6e3ef605596ef1247832b665a8b5ecdcc00c3e4419ead8b9e447d78b",
          "transactionIndex": "0xe",
          "logIndex": "0x96",
          "removed": false
        }
      ],
      "logsBloom": "0x00000000000000000000000000000000000000020000000000000100000000000000000000000000000200050000000000000100000000000000040000000000000000000000000000000008000000100000000000000000000000000000000000000000020000000000010000000800000000000000000000000010000000200001000000000000000400000000000000000000000000000000000000000000000000000000000000000000000000000000000000000000000000000000000000000082004000000000000000000000000000008000000000000000000020000000000000000000000000000000000000000000000000000000000000000000",
      "type": "0x2",
      "transactionHash": "0x8a43844e6e3ef605596ef1247832b665a8b5ecdcc00c3e4419ead8b9e447d78b",
      "transactionIndex": "0xe",
      "blockHash": "0x70780e18c4ff5206088737833f60e4c780db810f27a63fc8943055f5a7115ab8",
      "blockNumber": "0x2644b3e",
      "gasUsed": "0x24c87",
      "effectiveGasPrice": "0x5b8d80",
      "blobGasUsed": "0x39d0",
      "from": "0xf4747e7c6b0b127939fe4fa28bb3b89d5bb360b5",
      "to": "0x1ad2fc3469db1625730b4401e5717b741526b6af",
      "contractAddress": null,
      "daFootprintGasScalar": "0x94",
      "l1BaseFeeScalar": "0x44d",
      "l1BlobBaseFee": "0x7509",
      "l1BlobBaseFeeScalar": "0xa118b",
      "l1Fee": "0x2ac7a4",
      "l1GasPrice": "0x72908",
      "l1GasUsed": "0x640"
    }
  ],
  "libraries": [],
  "pending": [],
  "returns": {},
  "timestamp": 1776022876360,
  "chain": 84532,
  "commit": "3440d6d"
}